# Lost=1..998
8=FIX.4.2|9=91|35=A|34=999|52=20170508-10:21:55.052|49=SenderId|50=SenderSubId|56=TargetId|57=TargetSubId|10=064|
# SequenceReset(ResetMode):|newSeqNo=1
8=FIX.4.2|9=96|35=4|34=123|52=20170508-10:21:55.052|49=SenderId|50=SenderSubId|56=TargetId|57=TargetSubId|36=1|10=251|


8=FIX.4.2|9=284|35=D|34=1|52=20170508-10:21:55.048|49=SenderId|50=SenderSubId|56=TargetId|57=TargetSubId|200=201703|1=010007-8-06|206=0|167=FUT|207=TAIFEX|40=2|60=20170508102155.048408|21=1|11=04170301110144006300|60=20170508102155.048408|54=2|44=1117.6|55=FITF|77=N|47=A|38=1|59=0|10001=D|10002=D02|10=034|
8=FIX.4.2|9=284|35=D|34=2|52=20170508-10:21:55.048|49=SenderId|50=SenderSubId|56=TargetId|57=TargetSubId|200=201703|1=010007-8-06|206=0|167=FUT|207=TAIFEX|40=2|60=20170508102155.048560|21=1|11=04170301110144006300|60=20170508102155.048560|54=2|44=1117.6|55=FITF|77=N|47=A|38=1|59=0|10001=D|10002=D02|10=033|
8=FIX.4.2|9=284|35=D|34=3|52=20170508-10:21:55.048|49=SenderId|50=SenderSubId|56=TargetId|57=TargetSubId|200=201703|1=010007-8-06|206=0|167=FUT|207=TAIFEX|40=2|60=20170508102155.048693|21=1|11=04170301110144006300|60=20170508102155.048693|54=2|44=1117.6|55=FITF|77=N|47=A|38=1|59=0|10001=D|10002=D02|10=048|


# Err=4|err=CheckSum
8=FIX.4.2|9=284|35=8|34=4|52=20170508-10:21:55.048|49=SenderId|50=SenderSubId|56=TargetId|57=TargetSubId|200=201703|1=010007-8-06|206=0|167=FUT|207=TAIFEX|40=2|60=20170508102155.048787|21=1|11=04170301110144006300|60=20170508102155.048787|54=2|44=1117.6|55=FITF|77=N|47=A|38=1|59=0|10001=D|10002=D02|10=057|
# GapKeep:|Recv=5|Lost=4|ResendRequest=4..4
8=FIX.4.2|9=284|35=8|34=5|52=20170508-10:21:55.048|49=SenderId|50=SenderSubId|56=TargetId|57=TargetSubId|200=201703|1=010007-8-06|206=0|167=FUT|207=TAIFEX|40=2|60=20170508102155.048882|21=1|11=04170301110144006300|60=20170508102155.048882|54=2|44=1117.6|55=FITF|77=N|47=A|38=1|59=0|10001=D|10002=D02|10=038|
# Replay=4|Pop=5|Replay.Done.
8=FIX.4.2|9=284|35=8|34=4|52=20170508-10:21:55.048|49=SenderId|50=SenderSubId|56=TargetId|57=TargetSubId|200=201703|1=010007-8-06|206=0|167=FUT|207=TAIFEX|40=2|60=20170508102155.048787|21=1|11=04170301110144006300|60=20170508102155.048787|54=2|44=1117.6|55=FITF|77=N|47=A|38=1|59=0|10001=D|10002=D02|10=045|


# Err=6|err=CheckSum
8=FIX.4.2|9=284|35=8|34=6|52=20170508-10:21:55.049|49=SenderId|50=SenderSubId|56=TargetId|57=TargetSubId|200=201703|1=010007-8-06|206=0|167=FUT|207=TAIFEX|40=2|60=20170508102155.048971|21=1|11=04170301110144006300|60=20170508102155.048971|54=2|44=1117.6|55=FITF|77=N|47=A|38=1|59=0|10001=D|10002=D02|10=050|
# GapIgnore:|Recv=7|Lost=6|ResendRequest=6..7
8=FIX.4.2|9=284|35=D|34=7|52=20170508-10:21:55.049|49=SenderId|50=SenderSubId|56=TargetId|57=TargetSubId|200=201703|1=010007-8-06|206=0|167=FUT|207=TAIFEX|40=2|60=20170508102155.049066|21=1|11=04170301110144006300|60=20170508102155.049066|54=2|44=1117.6|55=FITF|77=N|47=A|38=1|59=0|10001=D|10002=D02|10=043|
# Replay=6,7|Replay.Done.
8=FIX.4.2|9=284|35=8|34=6|52=20170508-10:21:55.049|49=SenderId|50=SenderSubId|56=TargetId|57=TargetSubId|200=201703|1=010007-8-06|206=0|167=FUT|207=TAIFEX|40=2|60=20170508102155.048971|21=1|11=04170301110144006300|60=20170508102155.048971|54=2|44=1117.6|55=FITF|77=N|47=A|38=1|59=0|10001=D|10002=D02|10=038|
8=FIX.4.2|9=284|35=D|34=7|52=20170508-10:21:55.049|49=SenderId|50=SenderSubId|56=TargetId|57=TargetSubId|200=201703|1=010007-8-06|206=0|167=FUT|207=TAIFEX|40=2|60=20170508102155.049066|21=1|11=04170301110144006300|60=20170508102155.049066|54=2|44=1117.6|55=FITF|77=N|47=A|38=1|59=0|10001=D|10002=D02|10=043|


# Lost=8..10, Ignore=11, RequestResend=8..11
8=FIX.4.2|9=285|35=D|34=11|52=20170508-10:21:55.049|49=SenderId|50=SenderSubId|56=TargetId|57=TargetSubId|200=201703|1=010007-8-06|206=0|167=FUT|207=TAIFEX|40=2|60=20170508102155.049441|21=1|11=04170301110144006300|60=20170508102155.049441|54=2|44=1117.6|55=FITF|77=N|47=A|38=1|59=0|10001=D|10002=D02|10=081|
8=FIX.4.2|9=285|35=8|34=12|52=20170508-10:21:55.049|49=SenderId|50=SenderSubId|56=TargetId|57=TargetSubId|200=201703|1=010007-8-06|206=0|167=FUT|207=TAIFEX|40=2|60=20170508102155.049530|21=1|11=04170301110144006300|60=20170508102155.049530|54=2|44=1117.6|55=FITF|77=N|47=A|38=1|59=0|10001=D|10002=D02|10=068|
8=FIX.4.2|9=285|35=D|34=13|52=20170508-10:21:55.049|49=SenderId|50=SenderSubId|56=TargetId|57=TargetSubId|200=201703|1=010007-8-06|206=0|167=FUT|207=TAIFEX|40=2|60=20170508102155.049618|21=1|11=04170301110144006300|60=20170508102155.049618|54=2|44=1117.6|55=FITF|77=N|47=A|38=1|59=0|10001=D|10002=D02|10=095|
8=FIX.4.2|9=285|35=8|34=14|52=20170508-10:21:55.049|49=SenderId|50=SenderSubId|56=TargetId|57=TargetSubId|200=201703|1=010007-8-06|206=0|167=FUT|207=TAIFEX|40=2|60=20170508102155.049706|21=1|11=04170301110144006300|60=20170508102155.049706|54=2|44=1117.6|55=FITF|77=N|47=A|38=1|59=0|10001=D|10002=D02|10=080|
# SequenceReset-GapFill: 8..11, newSeqNo=11
8=FIX.4.2|9=101|35=4|34=8|52=20170508-10:21:55.052|49=SenderId|50=SenderSubId|56=TargetId|57=TargetSubId|123=Y|36=11|10=030|
# SequenceReset-GapFill: 11, newSeqNo=12
8=FIX.4.2|9=102|35=4|34=11|52=20170508-10:21:55.052|49=SenderId|50=SenderSubId|56=TargetId|57=TargetSubId|123=Y|36=12|10=074|
# SequenceReset-GapFill: 13
8=FIX.4.2|9=102|35=4|34=13|52=20170508-10:21:55.052|49=SenderId|50=SenderSubId|56=TargetId|57=TargetSubId|123=Y|36=14|10=078|

# TestRequest
8=FIX.4.2|9=101|35=1|34=15|52=20170508-10:21:55.049|49=SenderId|50=SenderSubId|56=TargetId|57=TargetSubId|112=TestHB|10=021|

8=FIX.4.2|9=285|35=D|34=16|52=20170508-10:21:55.049|49=SenderId|50=SenderSubId|56=TargetId|57=TargetSubId|200=201703|1=010007-8-06|206=0|167=FUT|207=TAIFEX|40=2|60=20170508102155.049875|21=1|11=04170301110144006300|60=20170508102155.049875|54=2|44=1117.6|55=FITF|77=N|47=A|38=1|59=0|10001=D|10002=D02|10=108|
8=FIX.4.2|9=285|35=D|34=17|52=20170508-10:21:55.050|49=SenderId|50=SenderSubId|56=TargetId|57=TargetSubId|200=201703|1=010007-8-06|206=0|167=FUT|207=TAIFEX|40=2|60=20170508102155.049963|21=1|11=04170301110144006300|60=20170508102155.049963|54=2|44=1117.6|55=FITF|77=N|47=A|38=1|59=0|10001=D|10002=D02|10=097|
8=FIX.4.2|9=285|35=D|34=18|52=20170508-10:21:55.050|49=SenderId|50=SenderSubId|56=TargetId|57=TargetSubId|200=201703|1=010007-8-06|206=0|167=FUT|207=TAIFEX|40=2|60=20170508102155.050051|21=1|11=04170301110144006300|60=20170508102155.050051|54=2|44=1117.6|55=FITF|77=N|47=A|38=1|59=0|10001=D|10002=D02|10=058|
8=FIX.4.2|9=285|35=D|34=19|52=20170508-10:21:55.050|49=SenderId|50=SenderSubId|56=TargetId|57=TargetSubId|200=201703|1=010007-8-06|206=0|167=FUT|207=TAIFEX|40=2|60=20170508102155.050139|21=1|11=04170301110144006300|60=20170508102155.050139|54=2|44=1117.6|55=FITF|77=N|47=A|38=1|59=0|10001=D|10002=D02|10=073|
8=FIX.4.2|9=285|35=D|34=20|52=20170508-10:21:55.050|49=SenderId|50=SenderSubId|56=TargetId|57=TargetSubId|200=201703|1=010007-8-06|206=0|167=FUT|207=TAIFEX|40=2|60=20170508102155.050227|21=1|11=04170301110144006300|60=20170508102155.050227|54=2|44=1117.6|55=FITF|77=N|47=A|38=1|59=0|10001=D|10002=D02|10=061|
8=FIX.4.2|9=285|35=D|34=21|52=20170508-10:21:55.050|49=SenderId|50=SenderSubId|56=TargetId|57=TargetSubId|200=201703|1=010007-8-06|206=0|167=FUT|207=TAIFEX|40=2|60=20170508102155.050315|21=1|11=04170301110144006300|60=20170508102155.050315|54=2|44=1117.6|55=FITF|77=N|47=A|38=1|59=0|10001=D|10002=D02|10=058|
8=FIX.4.2|9=285|35=D|34=22|52=20170508-10:21:55.050|49=SenderId|50=SenderSubId|56=TargetId|57=TargetSubId|200=201703|1=010007-8-06|206=0|167=FUT|207=TAIFEX|40=2|60=20170508102155.050403|21=1|11=04170301110144006300|60=20170508102155.050403|54=2|44=1117.6|55=FITF|77=N|47=A|38=1|59=0|10001=D|10002=D02|10=055|
8=FIX.4.2|9=285|35=D|34=23|52=20170508-10:21:55.050|49=SenderId|50=SenderSubId|56=TargetId|57=TargetSubId|200=201703|1=010007-8-06|206=0|167=FUT|207=TAIFEX|40=2|60=20170508102155.050506|21=1|11=04170301110144006300|60=20170508102155.050506|54=2|44=1117.6|55=FITF|77=N|47=A|38=1|59=0|10001=D|10002=D02|10=064|
8=FIX.4.2|9=285|35=D|34=24|52=20170508-10:21:55.050|49=SenderId|50=SenderSubId|56=TargetId|57=TargetSubId|200=201703|1=010007-8-06|206=0|167=FUT|207=TAIFEX|40=2|60=20170508102155.050595|21=1|11=04170301110144006300|60=20170508102155.050595|54=2|44=1117.6|55=FITF|77=N|47=A|38=1|59=0|10001=D|10002=D02|10=081|
8=FIX.4.2|9=285|35=D|34=25|52=20170508-10:21:55.050|49=SenderId|50=SenderSubId|56=TargetId|57=TargetSubId|200=201703|1=010007-8-06|206=0|167=FUT|207=TAIFEX|40=2|60=20170508102155.050681|21=1|11=04170301110144006300|60=20170508102155.050681|54=2|44=1117.6|55=FITF|77=N|47=A|38=1|59=0|10001=D|10002=D02|10=074|
8=FIX.4.2|9=285|35=D|34=26|52=20170508-10:21:55.050|49=SenderId|50=SenderSubId|56=TargetId|57=TargetSubId|200=201703|1=010007-8-06|206=0|167=FUT|207=TAIFEX|40=2|60=20170508102155.050756|21=1|11=04170301110144006300|60=20170508102155.050756|54=2|44=1117.6|55=FITF|77=N|47=A|38=1|59=0|10001=D|10002=D02|10=081|
8=FIX.4.2|9=285|35=D|34=27|52=20170508-10:21:55.050|49=SenderId|50=SenderSubId|56=TargetId|57=TargetSubId|200=201703|1=010007-8-06|206=0|167=FUT|207=TAIFEX|40=2|60=20170508102155.050831|21=1|11=04170301110144006300|60=20170508102155.050831|54=2|44=1117.6|55=FITF|77=N|47=A|38=1|59=0|10001=D|10002=D02|10=070|
8=FIX.4.2|9=285|35=D|34=28|52=20170508-10:21:55.050|49=SenderId|50=SenderSubId|56=TargetId|57=TargetSubId|200=201703|1=010007-8-06|206=0|167=FUT|207=TAIFEX|40=2|60=20170508102155.050906|21=1|11=04170301110144006300|60=20170508102155.050906|54=2|44=1117.6|55=FITF|77=N|47=A|38=1|59=0|10001=D|10002=D02|10=077|
8=FIX.4.2|9=285|35=D|34=29|52=20170508-10:21:55.051|49=SenderId|50=SenderSubId|56=TargetId|57=TargetSubId|200=201703|1=010007-8-06|206=0|167=FUT|207=TAIFEX|40=2|60=20170508102155.050993|21=1|11=04170301110144006300|60=20170508102155.050993|54=2|44=1117.6|55=FITF|77=N|47=A|38=1|59=0|10001=D|10002=D02|10=091|
8=FIX.4.2|9=285|35=D|34=30|52=20170508-10:21:55.051|49=SenderId|50=SenderSubId|56=TargetId|57=TargetSubId|200=201703|1=010007-8-06|206=0|167=FUT|207=TAIFEX|40=2|60=20170508102155.051092|21=1|11=04170301110144006300|60=20170508102155.051092|54=2|44=1117.6|55=FITF|77=N|47=A|38=1|59=0|10001=D|10002=D02|10=065|
8=FIX.4.2|9=285|35=D|34=31|52=20170508-10:21:55.051|49=SenderId|50=SenderSubId|56=TargetId|57=TargetSubId|200=201703|1=010007-8-06|206=0|167=FUT|207=TAIFEX|40=2|60=20170508102155.051181|21=1|11=04170301110144006300|60=20170508102155.051181|54=2|44=1117.6|55=FITF|77=N|47=A|38=1|59=0|10001=D|10002=D02|10=064|
8=FIX.4.2|9=285|35=D|34=32|52=20170508-10:21:55.051|49=SenderId|50=SenderSubId|56=TargetId|57=TargetSubId|200=201703|1=010007-8-06|206=0|167=FUT|207=TAIFEX|40=2|60=20170508102155.051269|21=1|11=04170301110144006300|60=20170508102155.051269|54=2|44=1117.6|55=FITF|77=N|47=A|38=1|59=0|10001=D|10002=D02|10=079|
8=FIX.4.2|9=285|35=D|34=33|52=20170508-10:21:55.051|49=SenderId|50=SenderSubId|56=TargetId|57=TargetSubId|200=201703|1=010007-8-06|206=0|167=FUT|207=TAIFEX|40=2|60=20170508102155.051357|21=1|11=04170301110144006300|60=20170508102155.051357|54=2|44=1117.6|55=FITF|77=N|47=A|38=1|59=0|10001=D|10002=D02|10=076|
8=FIX.4.2|9=285|35=D|34=34|52=20170508-10:21:55.051|49=SenderId|50=SenderSubId|56=TargetId|57=TargetSubId|200=201703|1=010007-8-06|206=0|167=FUT|207=TAIFEX|40=2|60=20170508102155.051444|21=1|11=04170301110144006300|60=20170508102155.051444|54=2|44=1117.6|55=FITF|77=N|47=A|38=1|59=0|10001=D|10002=D02|10=071|
8=FIX.4.2|9=285|35=D|34=35|52=20170508-10:21:55.051|49=SenderId|50=SenderSubId|56=TargetId|57=TargetSubId|200=201703|1=010007-8-06|206=0|167=FUT|207=TAIFEX|40=2|60=20170508102155.051542|21=1|11=04170301110144006300|60=20170508102155.051542|54=2|44=1117.6|55=FITF|77=N|47=A|38=1|59=0|10001=D|10002=D02|10=070|
8=FIX.4.2|9=285|35=D|34=36|52=20170508-10:21:55.051|49=SenderId|50=SenderSubId|56=TargetId|57=TargetSubId|200=201703|1=010007-8-06|206=0|167=FUT|207=TAIFEX|40=2|60=20170508102155.051630|21=1|11=04170301110144006300|60=20170508102155.051630|54=2|44=1117.6|55=FITF|77=N|47=A|38=1|59=0|10001=D|10002=D02|10=067|
8=FIX.4.2|9=285|35=D|34=37|52=20170508-10:21:55.051|49=SenderId|50=SenderSubId|56=TargetId|57=TargetSubId|200=201703|1=010007-8-06|206=0|167=FUT|207=TAIFEX|40=2|60=20170508102155.051718|21=1|11=04170301110144006300|60=20170508102155.051718|54=2|44=1117.6|55=FITF|77=N|47=A|38=1|59=0|10001=D|10002=D02|10=082|
8=FIX.4.2|9=285|35=D|34=38|52=20170508-10:21:55.051|49=SenderId|50=SenderSubId|56=TargetId|57=TargetSubId|200=201703|1=010007-8-06|206=0|167=FUT|207=TAIFEX|40=2|60=20170508102155.051806|21=1|11=04170301110144006300|60=20170508102155.051806|54=2|44=1117.6|55=FITF|77=N|47=A|38=1|59=0|10001=D|10002=D02|10=079|
8=FIX.4.2|9=285|35=D|34=39|52=20170508-10:21:55.051|49=SenderId|50=SenderSubId|56=TargetId|57=TargetSubId|200=201703|1=010007-8-06|206=0|167=FUT|207=TAIFEX|40=2|60=20170508102155.051904|21=1|11=04170301110144006300|60=20170508102155.051904|54=2|44=1117.6|55=FITF|77=N|47=A|38=1|59=0|10001=D|10002=D02|10=078|
8=FIX.4.2|9=285|35=D|34=40|52=20170508-10:21:55.052|49=SenderId|50=SenderSubId|56=TargetId|57=TargetSubId|200=201703|1=010007-8-06|206=0|167=FUT|207=TAIFEX|40=2|60=20170508102155.051998|21=1|11=04170301110144006300|60=20170508102155.051998|54=2|44=1117.6|55=FITF|77=N|47=A|38=1|59=0|10001=D|10002=D02|10=097|
8=FIX.4.2|9=285|35=D|34=41|52=20170508-10:21:55.052|49=SenderId|50=SenderSubId|56=TargetId|57=TargetSubId|200=201703|1=010007-8-06|206=0|167=FUT|207=TAIFEX|40=2|60=20170508102155.052087|21=1|11=04170301110144006300|60=20170508102155.052087|54=2|44=1117.6|55=FITF|77=N|47=A|38=1|59=0|10001=D|10002=D02|10=078|
8=FIX.4.2|9=285|35=D|34=42|52=20170508-10:21:55.052|49=SenderId|50=SenderSubId|56=TargetId|57=TargetSubId|200=201703|1=010007-8-06|206=0|167=FUT|207=TAIFEX|40=2|60=20170508102155.052175|21=1|11=04170301110144006300|60=20170508102155.052175|54=2|44=1117.6|55=FITF|77=N|47=A|38=1|59=0|10001=D|10002=D02|10=075|
8=FIX.4.2|9=285|35=D|34=43|52=20170508-10:21:55.052|49=SenderId|50=SenderSubId|56=TargetId|57=TargetSubId|200=201703|1=010007-8-06|206=0|167=FUT|207=TAIFEX|40=2|60=20170508102155.052263|21=1|11=04170301110144006300|60=20170508102155.052263|54=2|44=1117.6|55=FITF|77=N|47=A|38=1|59=0|10001=D|10002=D02|10=072|
8=FIX.4.2|9=285|35=D|34=44|52=20170508-10:21:55.052|49=SenderId|50=SenderSubId|56=TargetId|57=TargetSubId|200=201703|1=010007-8-06|206=0|167=FUT|207=TAIFEX|40=2|60=20170508102155.052359|21=1|11=04170301110144006300|60=20170508102155.052359|54=2|44=1117.6|55=FITF|77=N|47=A|38=1|59=0|10001=D|10002=D02|10=085|
